:1000000014C02EC02DC02CC02BC02AC029C028C0AF
:1000100027C07BC025C024C023C022C021C020C06F
:100020001FC01EC01DC01CC01BC011241FBECFE5B9
:10003000D2E0DEBFCDBF11E0A0E6B0E0EEECF6E12D
:1000400002C005900D92AE3CB107D9F711E0AEECBD
:10005000B1E001C01D92A73DB107E1F793D035CBC8
:10006000CFCFD898DA9A85BBE7ECF0E03197F1F77B
:1000700000C00000DA988150823030F48FE09EE0BA
:100080000197F1F700C003C095E89A95F1F70000D9
:100090000895D89ADA9A85BB87EC90E00197F1F73A
:1000A00000C00000DA9895E89A95F1F700000895ED
:1000B000EF92FF920F931F93CF93DF93EC01099080
:1000C0000020E9F72197C81BD90BE82EF92E00E094
:1000D00010E006C0F70181917F01DBDF0F5F1F4F4A
:1000E0000C171D07BCF3DF91CF911F910F91FF906B
:1000F000EF90089588E0B5DF88E3B3DF81E0B1DFFA
:1001000086E0AFDF8DE0ADDF08951F920F920FB64E
:100110000F9211248F939F938091D601813540F1E6
:100120001092D60191E0839B90E08091C400880FEB
:10013000890F8F718093C4008F3159F49091C3005F
:1001400093FD05C08091D40188608093D4019860AC
:100150000CC0882381F49091C30093FF05C0809167
:10016000D50188608093D501977F9093C30003C029
:100170008F5F8093D6019F918F910F900FBE0F904C
:100180001F9018956F927F928F929F92AF92BF921D
:10019000CF92DF92EF92FF920F931F93DF93CF9353
:1001A000CDB7DEB763970FB6F894DEBF0FBECDBFF5
:1001B000D09AD19AD29A1BBA8FEF84BB15BA8FE02E
:1001C00087BB8B988E98939A969A81E683BF89B75E
:1001D000816089BF1CBE8FB780688FBF8BDF8CE0CA
:1001E00040DF80E690E064DF80EC3BDF8EE690E06D
:1001F0005FDF8FEF9EE9A4E281509040A040E1F7DD
:1002000000C0000081E02DDF82E02BDF8FE790E06F
:100210004FDF80EC26DF8CE890E04ADF8FEF90E73D
:10022000A2E081509040A040E1F700C00000809122
:10023000D50183FFF3CF877F8093D50181E011DF64
:1002400082E00FDF00D000D000D0EDB7FEB73196CE
:100250008E010C5F1F4FADB7BEB712961C930E9365
:1002600011978BE990E0938382838AE090E09583F5
:10027000848321D78DB79EB706960FB6F8949EBF9C
:100280000FBE8DBF89EA90E013DF80ECEADEC80183
:100290000FDF81E090E09093D1018093D00131E0B5
:1002A000C32ED12C7E010894E11CF11C2DEBA22E53
:1002B00020E0B22E99EB892E90E0992E84EB682EE7
:1002C00080E0782E8AE8CDDE8091D50183FF39C0A9
:1002D000877F8093D5012091D2013091D301869BF5
:1002E00003C081E090E002C08FEF9FEF820F931F69
:1002F0009093D3018093D2018B309105A0F08B3085
:1003000091051CF48AE090E002C080E090E09093B8
:10031000D3018093D201D092CF01C092CE0188B395
:100320008F6088BB0EC08091CE019091CF0181304B
:10033000910539F41092CF011092CE01C098C19866
:10034000C2980091D2011091D301B801882777FD9E
:100350008095982FE5D320E030E04FE753E417D2A3
:1003600020E030E040E251E407D3C5D64ED06CBF68
:100370000A3011057CF400D000D000D0EDB7FEB7F4
:100380003196ADB7BEB71296FC92EE92119773827A
:10039000628224C0043611057CF400D000D000D065
:1003A000EDB7FEB73196ADB7BEB71296FC92EE929E
:1003B00011979382828212C093E0083E1907CCF411
:1003C00000D000D000D0EDB7FEB73196ADB7BEB7C4
:1003D0001296FC92EE921197B382A2821583048347
:1003E0006AD68DB79EB706960FB6F8949EBF0FBE1D
:1003F0008DBFC7015DDE8FE798E3A1E0815090409B
:10040000A040E1F700C000005DCFEF92FF920F9394
:100410001F937B018C0120E030E040E05FE455D386
:1004200087FD0FC0C801B70120E030E040E05FE485
:1004300083D1D2D39B01AC01205030404040504882
:1004400005C0C801B701C8D39B01AC01B901CA01FD
:100450001F910F91FF90EF900895A0E0B0E0E2E3CC
:10046000F2E0F6C5FC01EA018081823008F438C16F
:10047000DB019C91923008F430C1843059F49430FF
:1004800009F02EC1918111968C911197981709F05E
:1004900021C126C1943009F420C19230B1F48230D8
:1004A00009F01EC1CA01AF0128E0DA010D90AD01CB
:1004B000DC010D92CD012150C1F7DB0111968C9129
:1004C00011979181892389830AC1823009F405C17A
:1004D000C280D380DB0112966D907C9013972481AB
:1004E0003581468157811496ED90FD900D911C91B8
:1004F0001797C601861997095C0197FF04C0AA24C3
:10050000BB24A81AB90AB0E2AB16B1040CF061C062
:10051000181619066CF5370148010A2C04C0969488
:100520008794779467940A94D2F781E090E0A0E0F2
:10053000B0E00A2C04C0880F991FAA1FBB1F0A94A1
:10054000D2F70197A109B1098E219F21A023B123E0
:10055000EE24FF248701E3940097A105B10519F467
:10056000EE24FF248701E628F728082919293CC032
:100570000097D1F1CA0CDB1C39014A010A2C04C0D6
:1005800096948794779467940A94D2F781E090E0E8
:10059000A0E0B0E00A2C04C0880F991FAA1FBB1F5F
:1005A0000A94D2F70197A109B10982239323A423C6
:1005B000B52321E030E040E050E00097A105B1050F
:1005C00019F420E030E0A9012629372948295929C2
:1005D0000BC06C147D0424F4EE24FF24870104C0B6
:1005E000630120E030E0A9018181FB01918189173D
:1005F00009F445C0882349F0D801C701821B930B39
:10060000A40BB50B9C01AD0104C02E193F09400B92
:10061000510B57FD04C01982DB82CA820BC081E0F6
:100620008983DB82CA8250954095309521953F4F52
:100630004F4F5F4F2C833D834E835F830DC0880FE8
:10064000991FAA1FBB1F8C839D83AE83BF838A81A2
:100650009B8101979B838A838C819D81AE81BF8121
:100660009C01AD0121503040404050402F3FEFEF02
:100670003E07EFEF4E07EFE35E0708F30BC08983F9
:10068000DB82CA822E0D3F1D401F511F2C833D83EC
:100690004E835F8383E088832C813D814E815F811F
:1006A00057FF1DC0DA01C90181709070A070B07051
:1006B0005695479537952795822B932BA42BB52BD1
:1006C0008C839D83AE83BF838A819B8101969B83AC
:1006D0008A8305C0E5ECF0E003C0FB0101C0FE0128
:1006E000CF01CDB7DEB7EEE0CFC4A0E2B0E0EAE7DD
:1006F000F3E0B6C469837A838B839C832D833E8326
:100700004F83588789E0E82EF12CEC0EFD1ECE01B8
:100710000196B701D7D38E010F5E1F4FCE0105960C
:10072000B801D0D3C701B801AE01475E5F4F95DE77
:10073000FCD2A096E6E0B0C4A0E2B0E0E1EAF3E0CB
:100740008FC469837A838B839C832D833E834F83FD
:1007500058878E01075F1F4FCE010196B801B2D3B3
:1007600091E1E92EF12CEC0EFD1ECE010596B701AC
:10077000A9D38A8991E089278A8BC801B701AE0184
:10078000475E5F4F6ADED1D2A096E6E085C4A0E264
:10079000B0E0ECECF3E058C469837A838B839C83EC
:1007A0002D833E834F835887CE010196BE01675F3C
:1007B0007F4F88D3CE010596BE016F5E7F4F82D3F7
:1007C0009985923078F089898230C0F0943019F49C
:1007D000823041F4CBC0843019F4923079F4C6C031
:1007E000923051F481E02A859A89291709F480E032
:1007F0008A87CE010996BCC0823051F481E02A85F7
:100800009A89291709F480E08A8BCE014196B0C0FD
:100810006D847E848F849888ED88FE880F89188D7A
:10082000E0E2F0E080E090E0DC01AA24BB24650176
:1008300020E030E0A901B3016170707061157105AD
:10084000D1F02E0D3F1D401F511F15012601280E0E
:10085000391E4A1E5B1E81E090E0A0E0B0E02E153C
:100860003F054007510718F080E090E0DC01820D61
:10087000931DA41DB51DAA0CBB1CCC1CDD1C17FFB1
:1008800009C061E0262E312C412C512CA228B3281E
:10089000C428D528319749F0EE0CFF1C001F111F0A
:1008A0009694879477946794C6CF6B897C89EB85FF
:1008B000FC856E0F7F1F6E5F7F4F7C8F6B8F61E0BB
:1008C000EA857A89E71709F460E06A8F6B8D7C8D81
:1008D00010C0FC01E170F070309729F056954795F3
:1008E000379527955068B695A795979587956F5F2B
:1008F0007F4FB7FDEECF0CC0880F991FAA1FBB1FFB
:1009000057FD8160220F331F441F551F61507040F7
:100910008030E0E09E07E0E0AE07E0E4BE0760F371
:100920006B8F7C8F6FE7E62EF12C012D112DE822C5
:10093000F9220A231B2360E4E616F10401051105E0
:1009400061F487FD0AC0211531054105510529F0E3
:10095000805C9F4FAF4FBF4F80788D8F9E8FAF8F42
:10096000B8A383E0898FCE01499602C085EC90E060
:10097000DCD1A096E2E184C3A8E1B0E0E1ECF4E0D0
:100980006BC369837A838B839C832D833E834F83E0
:1009900058878E01075F1F4FCE010196B80192D292
:1009A00081E1E82EF12CEC0EFD1ECE010596B7017B
:1009B00089D29985923008F483C08989823008F4FD
:1009C0007BC02A853A8923272A87943011F09230F8
:1009D00021F4981709F06CC071C0843039F41D8679
:1009E0001E861F86188A1C861B866AC0823019F4F0
:1009F00084E0898765C08B859C852B893C89821B17
:100A0000930B9C878B872D853E854F855889ED8874
:100A1000FE880F89188D2E153F054007510738F4C1
:100A2000220F331F441F551F01979C878B876FE14F
:100A300070E0A12CB12CC12CA0E4DA2E80E090E073
:100A4000DC012E153F054007510740F08A299B29FC
:100A5000AC29BD292E193F09400B510BD694C794E0
:100A6000B794A794220F331F441F551F6150704045
:100A700041F76FE7E62EF12C012D112DE822F92226
:100A80000A231B2360E4E616F1040105110561F455
:100A900087FD0AC0211531054105510529F0805C0B
:100AA0009F4FAF4FBF4F80788D879E87AF87B88BA2
:100AB0008E01075F1F4F04C0870102C005EC10E0E4
:100AC000C80133D16896EAE0E3C2A8E1B0E0EAE603
:100AD000F5E0C6C269837A838B839C832D833E8332
:100AE0004F8358878E01075F1F4FCE010196B801D3
:100AF000E9D181E1E82EF12CEC0EFD1ECE01059628
:100B0000B701E0D18985823038F08989823020F0C0
:100B1000C801B70140D201C08FEF6896E6E0BCC2C1
:100B2000A8E0B0E0E5E9F5E09BC27B018C0183E041
:100B30008983D801C7018827B7FD83959927AA27FC
:100B4000BB27282F8A83E114F1040105110519F44C
:100B500082E0898336C08EE190E09C838B832223E0
:100B600089F080E0E81680E0F80680E0080780E879
:100B7000180759F110950095F094E094E11CF11CD0
:100B8000011D111DED82FE820F831887C801B70178
:100B900072D09C01215030401216130694F4022E9C
:100BA00004C0EE0CFF1C001F111F0A94D2F7ED8247
:100BB000FE820F8318878EE190E0821B930B9C834B
:100BC0008B83CE010196B1D004C060E070E080E07C
:100BD0009FEC2896E6E060C2ACE0B0E0E1EFF5E023
:100BE00043C269837A838B839C83CE010196BE01C5
:100BF0006B5F7F4F67D18D81823081F1823070F1E0
:100C0000843021F48E81882369F10AC02F813885D0
:100C100037FD24C06E812F3131053CF0662311F180
:100C200020E030E040E050E821C08EE190E0821BFF
:100C3000930B29853A854B855C8504C0569547956D
:100C4000379527958A95D2F7662381F05095409580
:100C5000309521953F4F4F4F5F4F08C020E030E067
:100C6000A90104C02FEF3FEF4FEF5FE7B901CA01C1
:100C70002C96E2E015C2AF92BF92CF92DF92EF9234
:100C8000FF920F931F937B018C0180E0E81680E0B8
:100C9000F80681E0080780E0180758F4EFEFEE1639
:100CA000F1040105110509F090F480E090E0DC0109
:100CB00017C0F0E0EF16F0E0FF06F0E00F07F1E0FC
:100CC0001F0750F480E190E0A0E0B0E009C088E0A8
:100CD00090E0A0E0B0E004C088E190E0A0E0B0E0E7
:100CE00020E230E040E050E0281B390B4A0B5B0B60
:100CF0005701680104C0D694C794B794A7948A9505
:100D0000D2F7D601C50183539F4FFC018081281B78
:100D1000310941095109C9011F910F91FF90EF90CD
:100D2000DF90CF90BF90AF900895EF92FF920F9316
:100D30001F93CF93DF93FC01248135814681578136
:100D400061818081823020F44061EFEFF0E0A3C048
:100D5000843009F49BC0823009F492C0211531051A
:100D60004105510509F48FC00280F381E02D8FEF1A
:100D7000E238F8070CF05AC0C2E8DFEFCE1BDF0BF9
:100D8000CA31D1056CF579018A010C2E04C0169583
:100D90000795F794E7940A94D2F781E090E0A0E0F9
:100DA000B0E00C2E04C0880F991FAA1FBB1F0A9425
:100DB000D2F70197A109B10982239323A423B52374
:100DC00021E030E040E050E00097A105B10519F4C2
:100DD00020E030E0A9012E293F29402B512B03C0F0
:100DE00020E030E0A901DA01C9018F779070A0708E
:100DF000B07080349105A105B10539F427FF09C011
:100E0000205C3F4F4F4F5F4F04C0215C3F4F4F4F1F
:100E10005F4FE1E0F0E0203080E0380780E04807F5
:100E200080E4580728F5E0E0F0E022C0E038F10562
:100E30006CF5E158FF4FDA01C9018F779070A0700F
:100E4000B07080349105A105B10539F427FF09C0C0
:100E5000205C3F4F4F4F5F4F04C0215C3F4F4F4FCF
:100E60005F4F57FF05C056954795379527953196A3
:100E700087E056954795379527958A95D1F70BC00A
:100E8000E0E0F0E005C0E0E0F0E005C0EFEFF0E00A
:100E900020E030E0A9018E2F879588278795942F31
:100EA0009F77679566276795E695E22EA92FA82B71
:100EB000FE2FF62B622F732F8A2F9F2FCDB7DEB711
:100EC000E6E0EAC0DC01FB012C9111963C91119700
:100ED00012968C911297482F4F7750E0982F991FB8
:100EE0009927991F13966C911397862F880F892B3A
:100EF00090E0661F6627661F6183009739F521150C
:100F000031054105510511F482E029C082E89FEFC7
:100F10009383828367E0220F331F441F551F6A9516
:100F2000D1F783E0808309C0220F331F441F551F70
:100F300082819381019793838283203080E03807F8
:100F400080E0480780E4580778F320C08F3F910580
:100F500079F4211531054105510519F484E08083A8
:100F6000089544FF03C081E0808310C010820EC04A
:100F70008F5790409383828383E0808387E0220FA2
:100F8000331F441F551F8A95D1F75064248335833E
:100F9000468357830895FC01DB019081923008F469
:100FA00049C08C91823008F445C0943051F461817D
:100FB0008430B1F511962C91119730E0261B310940
:100FC00041C0843021F0923041F48230B1F1119669
:100FD0008C9111978823A1F12DC06181823001F19C
:100FE00011968C9111976817D9F42281338112964A
:100FF0008D919C9113978217930794F028173907C6
:10100000BCF0248135814681578114968D919D9144
:101010000D90BC91A02D82179307A407B50718F473
:10102000662341F00DC0281739074A075B0728F4EB
:10103000662331F021E030E005C020E030E002C05E
:101040002FEF3FEFC90108952F923F924F925F9289
:101050006F927F928F929F92AF92BF92CF92DF92C8
:10106000EF92FF920F931F93CF93DF93CDB7DEB72D
:10107000CA1BDB0B0FB6F894DEBF0FBECDBF0994C1
:101080002A88398848885F846E847D848C849B8418
:10109000AA84B984C884DF80EE80FD800C811B8126
:1010A000AA81B981CE0FD11D0FB6F894DEBF0FBE55
:1010B000CDBFED010895AEE0B0E0E0E6F8E0D2CFBC
:1010C0000D891E8986E08C831A8309838FEF9FE741
:1010D0009E838D839E01275E3F4FCE0101966F89CF
:1010E000788DA90128D0EF81F885E00FF11F1082DB
:1010F0002E96E4E0D3CFC8D2E0F09E37D8F09639F0
:10110000B8F49E3848F4672F782F8827985FF9CF76
:1011100086957795679593959539D0F3B62FB170ED
:101120006B0F711D811D20F48795779567959395B9
:101130007AC294C2C4C2ACE0B0E0E0EAF8E084CF86
:101140006C011B018A01FC0117821682838181FFD9
:10115000C4C12E010894411C511CF6019381F10178
:1011600093FD859193FF81911F01882309F4B1C1FB
:10117000853239F493FD859193FF81911F0185326A
:1011800021F490E0B601C5D1E8CFEE24FF2420E0A1
:101190002032B0F48B3269F08C3228F4803251F076
:1011A000833271F40BC08D3239F0803349F4216001
:1011B0002CC02260246029C0286027C0206125C07F
:1011C00027FD2CC0382F30533A3098F426FF08C042
:1011D0008E2D880FE82EEE0CEE0CE80EE30E15C0F7
:1011E0008F2D880FF82EFF0CFF0CF80EF30E2062E7
:1011F0000CC08E3221F426FD6CC1206406C08C36F2
:1012000011F4206802C0883649F4F10193FD8591FC
:1012100093FF81911F01882309F0BACF982F95542D
:10122000933018F09052933028F40C5F1F4FFFE377
:10123000F9830DC0833631F0833771F0833509F0BF
:101240005CC021C0F801808189830E5F1F4F42017D
:1012500071E0A72EB12C15C062E0662E712C600ED5
:10126000711EF8018080918026FF03C06E2D70E012
:1012700002C06FEF7FEFC4012C8740D15C01830176
:101280002C852F7716C052E0652E712C600E711ED2
:10129000F8018080918026FF03C06E2D70E002C0AF
:1012A0006FEF7FEFC4012C871ED15C012C85206875
:1012B000830123FD1EC007C080E290E0B6012C87A9
:1012C00028D1FA942C858F2D90E0A816B906A0F3AA
:1012D00010C0F40127FD859127FF81914F0190E017
:1012E000B6012C8716D12C85F110FA940894A10828
:1012F000B108A114B10469F7E9C0843611F0893648
:1013000041F527FF08C0F8016081718182819381D6
:101310000C5F1F4F09C0F80160817181882777FD3C
:101320008095982F0E5F1F4F4FE6B42EB22297FF85
:1013300009C090958095709561957F4F8F4F9F4F15
:10134000F0E8BF2AA2012AE030E00FD1782E74180D
:1013500044C0853731F43FEEB32EB2222AE030E0AC
:1013600025C099EFB92EB2228F36C1F0803720F414
:10137000883509F0AEC00DC0803721F0883709F0FC
:10138000A8C002C020E1B22AB4FE0BC084E0B82A93
:1013900008C0B4FE09C0E6E0BE2A06C028E030E07E
:1013A00005C020E130E002C020E132E0B7FE08C015
:1013B000F80160817181828193810C5F1F4F07C0AA
:1013C000F8016081718180E090E00E5F1F4FA20103
:1013D000CCD0782E7418FFE7BF22B6FE0BC02EEFDC
:1013E000B2227E1438F4B4FE07C0B2FC05C08FEE02
:1013F000B82202C0A72C01C0AE2C8B2D90E0B4FE09
:101400000DC0FE01E70DF11D2081203319F4E9EE36
:10141000BE2209C0A394B2FE06C004C086789070B4
:10142000009709F0A3948B2C9924B3FC13C0B0FE51
:101430000EC0AF1428F4E72CEF0CEA18AF2C07C04D
:10144000E72C05C080E290E0B60163D0A394AF140E
:10145000C8F304C0AF1410F4FA1801C0FF2484FECE
:101460000EC080E390E0B60154D082FE1DC081FE24
:1014700003C088E590E010C088E790E00DC0C4018B
:1014800086789070009781F081FC02C080E201C0F4
:101490008BE2B7FC8DE290E0B6013BD005C080E363
:1014A00090E0B60136D0EA947E14C8F37A94F20143
:1014B000E70DF11D808190E0B6012BD07720B1F7C8
:1014C00005C080E290E0B60124D0FA94FF20C9F76D
:1014D00044CEF6012681378102C02FEF3FEFC901CC
:1014E0002C96E2E1CDCDFC010590615070400110D9
:1014F000D8F7809590958E0F9F1F0895FC0161503D
:10150000704001900110D8F7809590958E0F9F1F25
:1015100008950F931F93CF93DF938C01EB018B8181
:1015200081FF1BC082FF0DC02E813F818C819D8178
:101530002817390764F4E881F9810193F983E88376
:1015400006C0E885F985802F0995009731F48E81D2
:101550009F8101969F838E8302C00FEF1FEFC8010A
:10156000DF91CF911F910F910895FA01AA2728309A
:1015700051F1203181F1E8946F936E7F6E5F7F4F60
:101580008F4F9F4FAF4FB1E03ED0B4E03CD0670FDC
:10159000781F891F9A1FA11D680F791F8A1F911D2F
:1015A000A11D6A0F711D811D911DA11D20D009F47F
:1015B00068943F912AE0269F11243019305D3193C1
:1015C000DEF6CF010895462F4770405D4193B3E0AA
:1015D0000FD0C9F7F6CF462F4F70405D4A3318F051
:1015E000495D31FD4052419302D0A9F7EACFB4E002
:1015F000A6959795879577956795BA95C9F70097BA
:101600006105710508959B01AC010A2E069457955A
:10161000479537952795BA95C9F7620F731F841FB1
:10162000951FA01D0895882371F4772321F0985009
:10163000872B762F07C0662311F499270DC0905190
:10164000862B70E060E02AF09A95660F771F881F5E
:10165000DAF7880F9695879597F908959F3F31F0AF
:10166000915020F4879577956795B795880F911DD0
:101670009695879597F9089557FD9058440F551FF3
:1016800059F05F3F71F04795880F97FB991F61F004
:101690009F3F79F087950895121613061406551F7B
:1016A000F2CF4695F1DF08C0161617061806991FE7
:1016B000F1CF86957105610508940895E894BB27DC
:0E16C00066277727CB0197F90895F894FFCF9E
:1016CE002020202250574D2076312E3122002D2DF4
:1016DE005F5F5F2D2D5F5F5F2D2D5F5F5F2D005074
:1016EE007265737320627574746F6E00746F20630D
:1016FE006F6E74696E75652E2E2E004D6178207694
:10170E00616C75653A20256400506F726F73697451
:10171E00793A2000202025640020256400256400ED
:10172E000A0005FFFF00000000000000000001029B
:10173E00020303030304040404040404040505055E
:10174E000505050505050505050505050506060638
:10175E00060606060606060606060606060606061B
:10176E000606060606060606060606060607070708
:10177E0007070707070707070707070707070707EB
:10178E0007070707070707070707070707070707DB
:10179E0007070707070707070707070707070707CB
:1017AE0007070707070707070707070707080808B8
:1017BE00080808080808080808080808080808089B
:1017CE00080808080808080808080808080808088B
:1017DE00080808080808080808080808080808087B
:1017EE00080808080808080808080808080808086B
:1017FE00080808080808080808080808080808085B
:10180E00080808080808080808080808080808084A
:10181E00080808080808080808080808080808083A
:0E182E00080808080808080808080808080044
:00000001FF
